:100000000C9473000C949E000C949E000C949E0023
:100010000C949E000C949E000C949E000C949E00E8
:100020000C949E000C949E000C949E000C949E00D8
:100030000C949E000C949E000C949E000C949E00C8
:100040000C949E000C949E000C949E000C949E00B8
:100050000C949E000C949E000C949E000C949A04A8
:100060000C949E000C9448010C949E000C949E00ED
:100070000C949E000C949E000C949E000C949E0088
:100080000C949E000C949E000C949E000C949E0078
:100090000C9489010C949E000C949E000C949E007C
:1000A0000C949E000C949E000C949E000C949E0058
:1000B0000C949E000C949E000C949E000C949E0048
:1000C0000C949E000C949E000C949E000C94CA010B
:1000D0000C949E000C949E000C940B020C949E00B9
:1000E0000C949E00C80211241FBECFEFD1E2DEBFE8
:1000F000CDBF12E0A0E0B2E0E2EEFCE000E00BBF1A
:1001000002C007900D92AC30B107D9F71BBE14E0C6
:10011000ACE0B2E001C01D92A137B107E1F710E0F9
:10012000C6EED0E004C02297FE010E946B06C43EDA
:10013000D107C9F70E9441010C946F060C9400008E
:100140004F925F926F927F928F929F92AF92BF92E7
:10015000CF92DF92EF92FF920F931F9364EF71E0C3
:1001600080E090E00E94E20480E00E946D059093A0
:100170000D0280930C0200D000D0AA2797FDA09515
:10018000BA2FFFE36F2E712C812C912CEDB7FEB7A7
:100190006182728283829482BC01CD0120E030E0D2
:1001A00040E050E0EFEFEE2EE3E0FE2E012D112DAA
:1001B000AA24BB2465010E949D05AB01BC0150939C
:1001C0000D0240930C020F900F900F900F9080E261
:1001D000482E84E0582E662757FD6095762FC20181
:1001E00020E030E00E94850464EF71E080E090E060
:1001F0000E94E20481E00E946D0590930F028093BB
:100200000E0200D000D0AA2797FDA095BA2FEDB717
:10021000FEB76182728283829482BC01CD0120E0AC
:1002200030E040E050E00E949D0570930F02609323
:100230000E020F900F900F900F906064CB01AC01F5
:10024000662757FD6095762FC20120E030E00E94BE
:1002500085041F910F91FF90EF90DF90CF90BF909A
:10026000AF909F908F907F906F905F904F90089588
:1002700080E294E040E051EE60E070E00E944C02C9
:1002800008950E940C050E9438010E94A000FDCF35
:100290001F920F920FB60F920BB60F9211242F934D
:1002A0003F934F935F936F937F938F939F93AF93FE
:1002B000BF93EF93FF934091C600E0919002F091BD
:1002C0009102CF01019660E870E00E9405069C0152
:1002D00080919202909193022817390739F0E05FDC
:1002E000FD4F40833093910220939002FF91EF9154
:1002F000BF91AF919F918F917F916F915F914F913E
:100300003F912F910F900BBE0F900FBE0F901F903B
:1003100018951F920F920FB60F920BB60F921124E1
:100320002F933F934F935F936F937F938F939F93FD
:10033000AF93BF93EF93FF934091CE00E0911403EE
:10034000F0911503CF01019660E870E00E94050668
:100350009C0180911603909117032817390739F0F3
:10036000EC56FD4F40833093150320931403FF9107
:10037000EF91BF91AF919F918F917F916F915F911D
:100380004F913F912F910F900BBE0F900FBE0F908A
:100390001F9018951F920F920FB60F920BB60F92E7
:1003A00011242F933F934F935F936F937F938F937A
:1003B0009F93AF93BF93EF93FF934091D600E0914B
:1003C0009803F0919903CF01019660E870E00E94D4
:1003D00005069C0180919A0390919B032817390789
:1003E00039F0E85EFC4F40833093990320939803E3
:1003F000FF91EF91BF91AF919F918F917F916F91FD
:100400005F914F913F912F910F900BBE0F900FBEB8
:100410000F901F9018951F920F920FB60F920BB668
:100420000F9211242F933F934F935F936F937F937A
:100430008F939F93AF93BF93EF93FF9340913601B8
:10044000E0911C04F0911D04CF01019660E870E07A
:100450000E9405069C0180911E0490911F0428179C
:10046000390739F0E456FC4F408330931D04209344
:100470001C04FF91EF91BF91AF919F918F917F915C
:100480006F915F914F913F912F910F900BBE0F9005
:100490000FBE0F901F901895AF92BF92CF92DF9230
:1004A000EF92FF920F931F93CF93DF936C017A012A
:1004B0008B01DC011496AD90BC901597CB01BA016D
:1004C00022E030E040E050E00E943A06205C3D4BE4
:1004D000404F5F4FCA01B901A80197010E943A0637
:1004E000C901DA010197A109B109292F3A2F4B2F30
:1004F000552747FD5A950196A11DB11DE501288399
:10050000E601EE81FF8181508083EA85FB852081B1
:1005100041E050E0CA010E8402C0880F991F0A947E
:10052000E2F7282B2083EA85FB852081CA010F840E
:1005300002C0880F991F0A94E2F7282B2083EA85CE
:10054000FB858081088802C0440F551F0A94E2F79A
:10055000842B8083DF91CF911F910F91FF90EF90BB
:10056000DF90CF90BF90AF900895FC01A085B1853A
:1005700021898C9190E0022E02C0959587950A946E
:10058000E2F780FFF6CF0484F585E02D60830895BF
:1005900025E032E0309321042093200480E192E0B2
:1005A000909323048093220485EC90E0909325049B
:1005B0008093240484EC90E0909327048093260495
:1005C00080EC90E0909329048093280481EC90E0E3
:1005D00090932B0480932A0486EC90E090932D0452
:1005E00080932C0474E070932E0463E060932F04D6
:1005F00057E05093300445E0409331043093330486
:100600002093320484E992E090933504809334047B
:100610008DEC90E090933704809336048CEC90E05E
:10062000909339048093380488EC90E090933B04D5
:1006300080933A0489EC90E090933D0480933C04CD
:100640008EEC90E090933F0480933E0470934004BE
:100650006093410450934204409343043093450413
:100660002093440488E193E09093470480934604E8
:1006700085ED90E0909349048093480484ED90E0E8
:1006800090934B0480934A0480ED90E090934D0446
:1006900080934C0481ED90E090934F0480934E043E
:1006A00086ED90E09093510480935004709352042F
:1006B000609353045093540440935504309357046B
:1006C000209356048CE993E0909359048093580446
:1006D00085E391E090935B0480935A0484E391E076
:1006E00090935D0480935C0480E391E090935F04B9
:1006F00080935E0481E391E09093610480936004B1
:1007000086E391E0909363048093620470936404A1
:1007100060936504509366044093670408950F93B3
:100720001F93CF93DF938C01EB0109C02196D80171
:10073000ED91FC910190F081E02DC801099568814F
:100740006623A1F7DF91CF911F910F910895EF924A
:10075000FF920F931F93CF93DF938C017B01EA01EC
:100760000CC0D7016D917D01D801ED91FC910190F4
:10077000F081E02DC80109952197209791F7DF912D
:10078000CF911F910F91FF90EF9008952F923F927C
:100790004F925F926F927F928F929F92AF92BF9291
:1007A000CF92DF92EF92FF920F931F93DF93CF933D
:1007B000CDB7DEB7A0970FB6F894DEBF0FBECDBFA2
:1007C0001C016A017B01411551056105710549F460
:1007D000DC01ED91FC910190F081E02D60E3099541
:1007E00054C0882499245401422E55246624772429
:1007F00001E010E00C0F1D1F080D191DC701B60107
:10080000A30192010E941806F80160830894811CDC
:10081000911CA11CB11CC701B601A30192010E9449
:100820001806C901DA016C017D01C114D104E1048B
:10083000F104F1F681E0E82EF12CEC0EFD1EE80C3F
:10084000F91C3E010894611C711CD501C40101977B
:10085000A109B1096C01C818D90814C0F601EE0D40
:10086000FF1D60816A3010F4605D01C0695CD101D8
:10087000ED91FC910190F081E02DC1010995089462
:10088000E108F1086E147F0449F7A0960FB6F894BA
:10089000DEBF0FBECDBFCF91DF911F910F91FF90B3
:1008A000EF90DF90CF90BF90AF909F908F907F9010
:1008B0006F905F904F903F902F900895EF92FF922E
:1008C0000F931F93CF93DF93EC017A018B0177FF96
:1008D0000FC0E881F9810190F081E02D6DE209956A
:1008E00010950095F094E094E11CF11C011D111D80
:1008F000CE01B801A7012AE00E94C603DF91CF9183
:100900001F910F91FF90EF900895DC0121153105A3
:1009100041F4ED91FC910190F081E02D642F099557
:1009200008952A30310519F40E945E0408950E944A
:10093000C60308951F920F920FB60F9211242F93A2
:100940003F938F939F93AF93BF9380916C0490914B
:100950006D04A0916E04B0916F0430917004019603
:10096000A11DB11D232F2D5F2D3720F02D5701968E
:10097000A11DB11D2093700480936C0490936D04AD
:10098000A0936E04B0936F04809168049091690401
:10099000A0916A04B0916B040196A11DB11D8093D2
:1009A000680490936904A0936A04B0936B04BF91A8
:1009B000AF919F918F913F912F910F900FBE0F900C
:1009C0001F901895EF92FF920F931F937B018C015C
:1009D0008FB7F89440916C0450916D0460916E044F
:1009E00070916F048FBF2FB7F89480916C04909131
:1009F0006D04A0916E04B0916F042FBF841B950B02
:100A0000A60BB70BE816F9060A071B0760F71F913C
:100A10000F91FF90EF900895789484B5826084BD23
:100A200084B5816084BD85B5826085BD85B58160F2
:100A300085BDEEE6F0E0808181608083E1E8F0E052
:100A4000808182608083808181608083E0E8F0E043
:100A5000808181608083E1EBF0E08081846080832D
:100A6000E0EBF0E0808181608083E1E9F0E080816B
:100A700082608083808181608083E1EAF0E0808110
:100A800082608083808181608083E1E2F1E0808107
:100A900082608083808181608083E0E9F0E08081F2
:100AA00081608083E0EAF0E0808181608083E0E221
:100AB000F1E0808181608083EAE7F0E080818460FA
:100AC0008083808182608083808181608083808157
:100AD000806880831092C1000895382F377020916C
:100AE00000022295220F220F207C232B20937C00D2
:100AF00020917B0086958695869590E08170907018
:100B000033E0880F991F3A95E1F7277F282B209330
:100B10007B0080917A00806480937A0080917A00D3
:100B200086FDFCCF2091780040917900942F80E0E1
:100B300030E0282B392BC90108952F923F924F9214
:100B40005F926F927F928F929F92AF92BF92CF925D
:100B5000DF92EF92FF920F931F93DF93CF93CDB766
:100B6000DEB73B014C0119012A016D897E898F890D
:100B7000988D6A197B098C099D09621A730A840A87
:100B8000950AA40193010E94E605E218F3080409FE
:100B90001509A80197010E943A062A0D3B1D4C1D1C
:100BA0005D1DB901CA01CF91DF911F910F91FF9097
:100BB000EF90DF90CF90BF90AF909F908F907F90FD
:100BC0006F905F904F903F902F900895629FD0015B
:100BD000739FF001829FE00DF11D649FE00DF11DF8
:100BE000929FF00D839FF00D749FF00D659FF00DA7
:100BF0009927729FB00DE11DF91F639FB00DE11D94
:100C0000F91FBD01CF011124089597FB092E072676
:100C10000AD077FD04D049D006D000201AF4709590
:100C200061957F4F0895F6F7909581959F4F0895B0
:100C3000A1E21A2EAA1BBB1BFD010DC0AA1FBB1FE0
:100C4000EE1FFF1FA217B307E407F50720F0A21B52
:100C5000B30BE40BF50B661F771F881F991F1A94BF
:100C600069F760957095809590959B01AC01BD01E9
:100C7000CF01089597FB092E05260ED057FD04D00D
:100C8000D7DF0AD0001C38F4509540953095219557
:100C90003F4F4F4F5F4F0895F6F7909580957095B1
:100CA00061957F4F8F4F9F4F0895AA1BBB1B51E14A
:100CB00007C0AA1FBB1FA617B70710F0A61BB70BCC
:100CC000881F991F5A95A9F780959095BC01CD0171
:100CD0000895EE0FFF1F0590F491E02D0994F8940C
:020CE000FFCF44
:0C0CE2000100000000B5028F03A7030012
:00000001FF
