:100000000C9403010C942E010C942E010C942E01DF
:100010000C942E010C942E010C942E010C942E01A4
:100020000C942E010C942E010C942E010C942E0194
:100030000C942E010C942E010C942E010C942E0184
:100040000C942E010C942E010C942E010C942E0174
:100050000C942E010C942E010C942E010C94D201C0
:100060000C942E010C94B2030C942E010C942E01CE
:100070000C942E010C942E010C942E010C942E0144
:100080000C942E010C942E010C942E010C942E0134
:100090000C94F3030C942E010C942E010C942E015D
:1000A0000C942E010C942E010C942E010C942E0114
:1000B0000C942E010C942E010C942E010C942E0104
:1000C0000C942E010C942E010C942E010C943404EB
:1000D0000C942E010C942E010C9475040C942E019A
:1000E0000C942E0100002100240027002A002D007E
:1000F0003000330001010000040107010A01000083
:100100002200250028002B002E00310034000201BF
:100110000000050108010B0100002000230026005B
:1001200029002C002F00320000010000030106010D
:10013000090105050505070508080808020202026D
:100140000A0A080804040404010101010101010173
:100150000303030303030303040707070C0C0C0C3E
:100160000C0C0C0C02020202060606060606060627
:100170000B0B0B0B0B0B0B0B0102102020080810B4
:100180002040102040800201020108040201010207
:1001900004081020408080402010080402018004E0
:1001A000020180402010080402010804020101023B
:1001B0000408102040800102040810204080000044
:1001C000090A02080B0C0D070603040100000000D9
:1001D000000000000000000000000000000000001F
:1001E00000000000000000000000100F0E000000E2
:1001F00000000000000000000000000000000000FF
:1002000000000000FE0511241FBECFEFD1E2DEBFCB
:10021000CDBF12E0A0E0B2E0E0E3FFE000E00BBF02
:1002200002C007900D92AA30B107D9F71BBE14E0A7
:10023000AAE0B2E001C01D92A43EB107E1F712E0CE
:10024000C6E0D2E004C02297FE010E949207C430AB
:10025000D107C9F70E94CB010C9496070C940000BB
:100260001F9388E994E040E051EE60E070E00E9466
:10027000B60486E18093790211E052C00E94260301
:10028000282F80937B02482F50E060917902E62F5F
:10029000F0E0EE0FFF1FE65FFD4F80819181481770
:1002A000590781F051834083222319F0213051F402
:1002B00002C0606C01C0606860937C0288E994E0D1
:1002C0000E9405071093780222C088E994E00E94FA
:1002D000AF05882301F188E994E00E94C30580936B
:1002E0007A02982F907C90937E028F7380937D0288
:1002F000903819F0903C31F402C060E001C061E038
:100300000E949B02809178028F5F80937802809197
:1003100078028930D0F2809179028F5F80937902E0
:1003200080917902863308F4A9CF1F910895109225
:10033000780208C061E00E947B02809178028F5FA2
:1003400080937802809178028031A0F386E10BC01F
:1003500060E00E947B028091780261E00E949B0233
:10036000809178028F5F8093780280917802863343
:1003700078F380E021E030E009C0E82FF0E0EE0FF4
:10038000FF1FE65FFD4F318320838F5F8833A8F323
:100390008093780208950E941A020E9497010E9499
:1003A0003001FDCF1F920F920FB60F9211242F93A1
:1003B0003F938F939F93AF93BF93809183029091CC
:1003C0008402A0918502B091860230918702019645
:1003D000A11DB11D232F2D5F2D3720F02D57019624
:1003E000A11DB11D20938702809383029093840204
:1003F000A0938502B093860280917F029091800243
:10040000A0918102B09182020196A11DB11D80933D
:100410007F0290938002A0938102B0938202BF91E9
:10042000AF919F918F913F912F910F900FBE0F90A1
:100430001F901895789484B5826084BD84B58160DE
:1004400084BD85B5826085BD85B5816085BDEEE6DC
:10045000F0E0808181608083E1E8F0E0808182606B
:100460008083808181608083E0E8F0E0808181602A
:100470008083E1EBF0E0808184608083E0EBF0E05A
:10048000808181608083E1E9F0E080818260808307
:10049000808181608083E1EAF0E0808182608083F6
:1004A000808181608083E1E2F1E0808182608083ED
:1004B000808181608083E0E9F0E0808181608083D9
:1004C000E0EAF0E0808181608083E0E2F1E0808119
:1004D00081608083EAE7F0E08081846080838081AE
:1004E0008260808380818160808380818068808356
:1004F0001092C1000895282F30E0C90188589E4FFE
:10050000FC0194912E5C3E4FF9018491882391F077
:10051000E82FF0E0EE0FFF1FEC51FF4FA591B491D3
:10052000662329F48C91909589238C9308958C915E
:10053000892B8C930895482F50E0CA0182549E4F16
:10054000FC012491CA0188589E4FFC0194914E5C95
:100550005E4FFA013491332309F477C0222309F462
:1005600062C0233021F4809180008F7705C0243051
:1005700031F4809180008F7D8093800054C02130C1
:1005800019F484B58F7704C0223021F484B58F7DAF
:1005900084BD49C0263021F48091B0008F7705C01A
:1005A000273031F48091B0008F7D8093B0003BC044
:1005B000283021F4809190008F7705C0293031F4E4
:1005C000809190008F7D809390002DC02A3021F47F
:1005D00080919000877FF7CF2B3021F48091A0008D
:1005E0008F770BC02C3021F48091A0008F7D05C047
:1005F0002D3031F48091A000877F8093A00013C03C
:100600002E3021F4809120018F770BC02F3021F400
:10061000809120018F7D05C0203129F48091200137
:10062000877F80932001E32FF0E0EE0FFF1FE25061
:10063000FF4FA591B491662329F48C91909589235D
:100640008C9308958C91892B8C930895682F70E07A
:10065000CB0182549E4FFC012491CB0188589E4FC0
:10066000FC0144916E5C7E4FFB019491992319F437
:1006700020E030E075C0222309F462C0233021F469
:10068000809180008F7705C0243031F48091800004
:100690008F7D8093800054C0213019F484B58F770A
:1006A00004C0223021F484B58F7D84BD49C026303A
:1006B00021F48091B0008F7705C0273031F480910C
:1006C000B0008F7D8093B0003BC0283021F4809132
:1006D00090008F7705C0293031F4809190008F7D94
:1006E000809390002DC02A3021F480919000877F64
:1006F000F7CF2B3021F48091A0008F770BC02C30E6
:1007000021F48091A0008F7D05C02D3031F48091BF
:10071000A000877F8093A00013C02E3021F4809129
:1007200020018F770BC02F3021F4809120018F7D25
:1007300005C0203129F480912001877F809320011A
:10074000892F90E0880F991F885E9E4FFC01A5912C
:10075000B4918C9120E030E0842311F021E030E06E
:10076000C90108951F920F920FB60F920BB60F9208
:1007700011242F933F934F935F936F937F938F93A6
:100780009F93AF93BF93EF93FF934091C600E09187
:100790000803F0910903CF01019660E870E00E9420
:1007A0002C079C0180910A0390910B0328173907AD
:1007B00039F0E857FD4F4083309309032093080335
:1007C000FF91EF91BF91AF919F918F917F916F9129
:1007D0005F914F913F912F910F900BBE0F900FBEE5
:1007E0000F901F9018951F920F920FB60F920BB695
:1007F0000F9211242F933F934F935F936F937F93A7
:100800008F939F93AF93BF93EF93FF934091CE004D
:10081000E0918C03F0918D03CF01019660E870E0C8
:100820000E942C079C0180918E0390918F032817C2
:10083000390739F0E45FFC4F408330938D032093F8
:100840008C03FF91EF91BF91AF919F918F917F9119
:100850006F915F914F913F912F910F900BBE0F9031
:100860000FBE0F901F9018951F920F920FB60F9208
:100870000BB60F9211242F933F934F935F936F9377
:100880007F938F939F93AF93BF93EF93FF93409189
:10089000D600E0911004F0911104CF01019660E8B8
:1008A00070E00E942C079C01809112049091130427
:1008B0002817390739F0E057FC4F40833093110473
:1008C00020931004FF91EF91BF91AF919F918F9171
:1008D0007F916F915F914F913F912F910F900BBE40
:1008E0000F900FBE0F901F9018951F920F920FB68A
:1008F0000F920BB60F9211242F933F934F935F9358
:100900006F937F938F939F93AF93BF93EF93FF93D7
:1009100040913601E0919404F0919504CF01019645
:1009200060E870E00E942C079C01809196049091F1
:1009300097042817390739F0EC5EFB4F408330935A
:10094000950420939404FF91EF91BF91AF919F91F3
:100950008F917F916F915F914F913F912F910F9068
:100960000BBE0F900FBE0F901F9018955F926F9265
:100970007F928F929F92AF92BF92CF92DF92EF922F
:10098000FF920F931F93CF93DF93EC013A014B013A
:10099000413482E458078FE0680780E078070CF064
:1009A0007FC060E874E88EE190E0A40193010E94AA
:1009B00061072150304040405040CA01B90122E057
:1009C00030E040E050E00E94610759016A01A60151
:1009D0009501209530954095509594E0220F331F56
:1009E000441F551F9A95D1F760E074E284EF90E0C0
:1009F0000E946107CA01B9012FEF30E040E050E0EA
:100A00000E940D07A40193010E946107C901815052
:100A10009F4F181619061CF4522E5A9403C05524E1
:100A20005394521A60E079E08DE390E0A4019301C1
:100A30000E9461072150304040405040CA01B90136
:100A400022E030E040E050E00E94610720953095C0
:100A50004095509583E0220F331F441F551F8A9500
:100A6000D1F760E074E284EF90E00E946107CA0170
:100A7000B9012FEF30E040E050E00E940D07A401E3
:100A800093010E946107C90181509F4F18161906F2
:100A90001CF4822F815002C081E0821B851500F575
:100AA000E885F98581E090E00A8802C0880F991FE7
:100AB0000A94E2F7808360E079E08DE390E0A4019E
:100AC00093010E9461072150304040405040CA01CC
:100AD000B90122E030E040E050E00E94610704C02C
:100AE000E885F98510829501EC81FD813083EE81E6
:100AF000FF812083EA85FB85208141E050E0CA0127
:100B00000E8402C0880F991F0A94E2F7282B2083D5
:100B1000EA85FB852081CA010F8402C0880F991FD6
:100B20000A94E2F7282B2083EA85FB8580810888D8
:100B300002C0440F551F0A94E2F7842B8083DF9193
:100B4000CF911F910F91FF90EF90DF90CF90BF90CA
:100B5000AF909F908F907F906F905F900895DC0191
:100B60001296ED91FC911397E058FF4F819191916E
:100B700080589F4F20813181821B930B60E870E089
:100B80000E942C070895CF93DF93DC011296ED911C
:100B9000FC911397EF01CE57DF4F48815981E05800
:100BA000FF4F80819181E058F0408417950719F438
:100BB0002FEF3FEF0CC0E40FF51F2081CA01019613
:100BC00060E870E00E942C079983888330E0C901B7
:100BD000DF91CF910895FC01A085B18521898C9189
:100BE00090E0022E02C0959587950A94E2F780FF67
:100BF000F6CF0484F585E02D6083089524E032E08B
:100C0000309399042093980488E892E090939B0491
:100C100080939A0485EC90E090939D0480939C04CB
:100C200084EC90E090939F0480939E0480EC90E08D
:100C30009093A1048093A00481EC90E09093A3048E
:100C40008093A20486EC90E09093A5048093A40482
:100C5000E4E0E093A60473E07093A70467E0609378
:100C6000A80455E05093A90441E04093AA043093AE
:100C7000AC042093AB048CE093E09093AE0480939B
:100C8000AD048DEC90E09093B0048093AF048CECB5
:100C900090E09093B2048093B10488EC90E090933C
:100CA000B4048093B30489EC90E09093B6048093ED
:100CB000B5048EEC90E09093B8048093B704E09371
:100CC000B9047093BA046093BB045093BC0440937E
:100CD000BD043093BF042093BE0480E993E0909359
:100CE000C1048093C00485ED90E09093C304809389
:100CF000C20484ED90E09093C5048093C40480ED19
:100D000090E09093C7048093C60481ED90E09093A7
:100D1000C9048093C80486ED90E09093CB0480933F
:100D2000CA04E093CC047093CD046093CE04509336
:100D3000CF044093D0043093D2042093D10484E1B3
:100D400094E09093D4048093D30485E391E090934E
:100D5000D6048093D50484E391E09093D8048093E3
:100D6000D70480E391E09093DA048093D90481E37F
:100D700091E09093DC048093DB0486E391E0909310
:100D8000DE048093DD04E093DF047093E00460935D
:100D9000E1045093E2044093E30408950F931F93FA
:100DA000CF93DF938C01EB0109C02196D801ED911F
:100DB000FC910190F081E02DC801099568816623BE
:100DC000A1F7DF91CF911F910F910895EF92FF92BC
:100DD0000F931F93CF93DF938C017B01EA010CC02B
:100DE000D7016D917D01D801ED91FC910190F081C9
:100DF000E02DC80109952197209791F7DF91CF91B8
:100E00001F910F91FF90EF900895DC01ED91FC91FF
:100E10000190F081E02D09950895629FD001739FA4
:100E2000F001829FE00DF11D649FE00DF11D929F86
:100E3000F00D839FF00D749FF00D659FF00D9927C5
:100E4000729FB00DE11DF91F639FB00DE11DF91FE9
:100E5000BD01CF011124089597FB092E07260AD062
:100E600077FD04D049D006D000201AF47095619522
:100E70007F4F0895F6F7909581959F4F0895A1E2D1
:100E80001A2EAA1BBB1BFD010DC0AA1FBB1FEE1F04
:100E9000FF1FA217B307E407F50720F0A21BB30B4F
:100EA000E40BF50B661F771F881F991F1A9469F7CB
:100EB00060957095809590959B01AC01BD01CF0127
:100EC000089597FB092E05260ED057FD04D0D7DFD5
:100ED0000AD0001C38F450954095309521953F4F2D
:100EE0004F4F5F4F0895F6F79095809570956195F7
:100EF0007F4F8F4F9F4F0895AA1BBB1B51E107C027
:100F0000AA1FBB1FA617B70710F0A61BB70B881F99
:100F1000991F5A95A9F780959095BC01CD01089528
:100F2000EE0FFF1F0590F491E02D0994F894FFCF88
:0A0F300000000000EB05CE06E60607
:00000001FF
